:100000000C942A000C9447000C9447000C94470071
:100010000C9447000C9447000C9447000C94470044
:100020000C9447000C9447000C9447000C94470034
:100030000C9447000C9447000C9447000C94470024
:100040000C9447000C9447000C9447000C94470014
:100050000C94470011241FBECFE5D8E0DEBFCDBF12
:1000600010E0A0E6B0E0E0EDFAE002C005900D92ED
:10007000AE36B107D9F710E0AEE6B0E001C01D9290
:10008000A737B107E1F70E94DC040C9466050C94D5
:100090000000E3E5F0E080818F7B808380818860D1
:1000A0008083E9E5F0E08081826080830895E3E564
:1000B000F0E080818160808380818D7F808380817A
:1000C000846080830895E3E5F0E080818E7F808303
:1000D00080818D7F808380818B7F80830895982F9E
:1000E000882311F41CBE089580E064E670E00E944D
:1000F000020561506CBF0895282F30E040E050E0C9
:1001000064E274EF80E090E00E94150537BD26BDE3
:1001100008950E94570008950E94630008952F9249
:100120003F924F925F926F927F928F929F92AF9287
:10013000BF92CF92DF92EF92FF920F931F93CF93D4
:10014000DF938AE261E00E94DA010F2EFAE0AF2E1F
:10015000BB24F02D80E690E0682E892E82E690E0A8
:10016000782E992E0F2EF4E64F2EF0E05F2EF02D14
:100170000F2EF8E62F2EF0E03F2EF02D0F2EF0E997
:10018000EF2EF1E0FF2EF02DC701CE2CD92E8A2DB7
:100190000E946F0081E090E060E070E00E94D9036F
:1001A000C5016AE070E00E940205862F972F8C013E
:1001B0001016110654F4C1E0D0E0862D982D0E944F
:1001C000940421960C171D07C4F78AE090E0801B69
:1001D000910B3AF0EC01872D992D0E949404219700
:1001E000D2F780E090E060E070E00E94D903C201A5
:1001F0000E94940480E090E065E070E00E94D903E2
:10020000C5010E94240480E090E068E070E00E9454
:10021000D903C1010E94940424EC39E0C70101977D
:10022000F1F721503040D1F70E94D5038AE090E0E9
:10023000A80EB91E9EE6A916B10409F0A8CFDF9159
:10024000CF911F910F91FF90EF90DF90CF90BF90D3
:10025000AF909F908F907F906F905F904F903F9066
:100260002F90089587E161E00E944501E3E5F0E009
:1002700080818064808380818860808380818F7E9C
:1002800080838081806280830895282F362F6AE0E2
:100290000E94F604492F822F0E94F604332321F096
:1002A000313009F086C046C08230D1F0833020F46E
:1002B000813009F07EC006C0833001F1843009F03E
:1002C00078C02AC0EAE3F0E0208181E090E002C03B
:1002D000880F991F4A95E2F78095822380830895BD
:1002E000E7E3F0E0208181E090E002C0880F991FF1
:1002F0004A95E2F78095822380830895E4E3F0E055
:10030000208181E090E002C0880F991F4A95E2F7B2
:100310008095822380830895E1E3F0E0208181E0ED
:1003200090E002C0880F991F4A95E2F780958223DA
:10033000808308958230B9F0833018F48130C9F594
:1003400005C08330E9F08430A1F527C0EAE3F0E08E
:10035000208181E090E002C0880F991F4A95E2F762
:10036000282B20830895E7E3F0E0208181E090E0EE
:1003700002C0880F991F4A95E2F7282B2083089521
:10038000E4E3F0E0208181E090E002C0880F991F53
:100390004A95E2F7282B20830895E1E3F0E02081DD
:1003A00081E090E002C0880F991F4A95E2F7282B60
:1003B00020830895282F362F6AE00E94F604492FE3
:1003C000822F0E94F604332321F0313009F086C0D9
:1003D00046C08230D1F0833020F4813009F07EC0F5
:1003E00006C0833001F1843009F078C02AC0EBE305
:1003F000F0E0208181E090E002C0880F991F4A95CB
:10040000E2F78095822380830895E8E3F0E020817D
:1004100081E090E002C0880F991F4A95E2F780952D
:10042000822380830895E5E3F0E0208181E090E07D
:1004300002C0880F991F4A95E2F780958223808336
:100440000895E2E3F0E0208181E090E002C0880FAF
:10045000991F4A95E2F78095822380830895823020
:10046000B9F0833018F48130C9F505C08330E9F064
:100470008430A1F527C0EBE3F0E0208181E090E03B
:1004800002C0880F991F4A95E2F7282B2083089510
:10049000E8E3F0E0208181E090E002C0880F991F3E
:1004A0004A95E2F7282B20830895E5E3F0E02081C8
:1004B00081E090E002C0880F991F4A95E2F7282B4F
:1004C00020830895E2E3F0E0208181E090E002C023
:1004D000880F991F4A95E2F7282B20830895282F2B
:1004E0006AE00E94F604392F822F0E94F6048230BF
:1004F000B9F0833018F48130C9F505C08330E9F0D4
:100500008430A1F527C0EBE3F0E0208181E090E0AA
:1005100002C0880F991F3A95E2F728272083089593
:10052000E8E3F0E0208181E090E002C0880F991FAD
:100530003A95E2F7282720830895E5E3F0E020814B
:1005400081E090E002C0880F991F3A95E2F72827D2
:1005500020830895E2E3F0E0208181E090E002C092
:10056000880F991F3A95E2F7282720830895282FAE
:100570006AE00E94F604392F822F0E94F60482302E
:10058000A1F0833018F4813029F406C08330B1F033
:100590008430E9F080E0089589B390E002C0959539
:1005A00087953A95E2F78170089586B390E002C08E
:1005B000959587953A95E2F78170089583B390E019
:1005C00002C0959587953A95E2F78170089580B3BA
:1005D00090E002C0959587953A95E2F7817008956D
:1005E000282F362F6AE00E94F604492F822F0E949E
:1005F000F604332321F0313009F086C046C0823042
:10060000D1F0833020F4813009F07EC006C0833001
:1006100001F1843009F078C02AC0EBE3F0E02081DA
:1006200081E090E002C0880F991F4A95E2F780951B
:10063000822380830895E8E3F0E0208181E090E068
:1006400002C0880F991F4A95E2F780958223808324
:100650000895E5E3F0E0208181E090E002C0880F9A
:10066000991F4A95E2F78095822380830895E2E3FB
:10067000F0E0208181E090E002C0880F991F4A9548
:10068000E2F780958223808308958230B9F0833029
:1006900018F48130C9F505C08330E9F08430A1F544
:1006A00027C0EBE3F0E0208181E090E002C0880FFA
:1006B000991F4A95E2F7282B20830895E8E3F0E09C
:1006C000208181E090E002C0880F991F4A95E2F7EF
:1006D000282B20830895E5E3F0E0208181E090E07D
:1006E00002C0880F991F4A95E2F7282B20830895AE
:1006F000E2E3F0E0208181E090E002C0880F991FE2
:100700004A95E2F7282B208308951F93182F682F0E
:1007100061708AE00E94DA01612F669561708BE05A
:100720000E94DA01612F6695669561708CE00E94E7
:10073000DA0116951695169511708DE0612F0E94BD
:10074000DA011F910895FF920F931F93F82E8EE008
:1007500060E00E94DA018F2D82958F700E948503E0
:1007600080E161E00E94DA0100E41FE1C801019725
:10077000F1F780E160E00E94DA01C8010197F1F72A
:100780008F2D0E94850380E161E00E94DA01C8019B
:100790000197F1F780E160E00E94DA01C80101975A
:1007A000F1F71F910F91FF90089581E00E94A3033C
:1007B0000895DF93CF9300D0CDB7DEB790E899834B
:1007C00090EC9A83FE01E80FF11D8181860F0E9453
:1007D000A3030F900F90CF91DF910895FF920F9395
:1007E0001F93F82E8EE061E00E94DA018FE060E056
:1007F0000E94DA018F2D82958F700E94850380E11F
:1008000061E00E94DA0100E41FE1C8010197F1F7FD
:1008100080E160E00E94DA01C8010197F1F78F2DB5
:100820000E94850380E161E00E94DA01C80101971E
:10083000F1F780E160E00E94DA01C8010197F1F769
:100840001F910F91FF900895AF92BF92CF92DF92C8
:10085000EF92FF920F93DF93CF93CDB7DEB76297FE
:100860000FB6F894DEBF0FBECDBF6B017C0199239C
:100870005CF4F094E094D094C094C11CD11CE11CB1
:10088000F11C8DE20E94EE030FEF5E010894A11CA3
:10089000B11C0F5F802F992787FD90959501280F38
:1008A000391F3A8B298BC701B6012AE030E040E0BE
:1008B00050E00E941505E989FA896083C701B601F5
:1008C0002AE030E040E050E00E941505822F932F8F
:1008D000A42FB52F6C017D01C114D104E104F104F2
:1008E000C1F600238CF07E010894E11CF11C802FDE
:1008F000992787FD9095F701E80FF91F8081805DAA
:100900000E94EE0301509AF762960FB6F894DEBF8C
:100910000FBECDBFCF91DF910F91FF90EF90DF9091
:10092000CF90BF90AF9008951F93CF93DF93EC01CA
:100930008881882351F010E00E94EE031F5FFE01C2
:10094000E10FF11D80818823B9F7DF91CF911F91CD
:1009500008958AE061E00E9445018BE061E00E9419
:1009600045018CE061E00E9445018DE061E00E945C
:1009700045018EE061E00E94450180E161E00E9456
:1009800045018FE061E00E9445018FE060E00E9438
:10099000DA0183E30E94A30382E30E94A30388E2B7
:1009A0000E94A3038CE00E94A30381E00E94A303A2
:1009B00082E00E94A3030895CF93DF938AE261E06F
:1009C0000E94450187E161E00E9445010E943201D9
:1009D0000E94A904C0E4DCE90E9489000E948F0003
:1009E0000E94D503CE010197F1F7F6CF991B79E06C
:1009F00004C0991F961708F0961B881F7A95C9F7AF
:100A00008095089597FB092E07260AD077FD04D01C
:100A100027D006D000201AF4709561957F4F089575
:100A2000F6F7909581959F4F089597FB092E05261F
:100A30000ED057FD04D028D00AD0001C38F45095B1
:100A40004095309521953F4F4F4F5F4F0895F6F7F2
:100A500090958095709561957F4F8F4F9F4F08952A
:100A6000AA1BBB1B51E107C0AA1FBB1FA617B707D4
:100A700010F0A61BB70B881F991F5A95A9F78095F0
:100A80009095BC01CD010895A1E21A2EAA1BBB1BB3
:100A9000FD010DC0AA1FBB1FEE1FFF1FA217B3074A
:100AA000E407F50720F0A21BB30BE40BF50B661F60
:100AB000771F881F991F1A9469F760957095809524
:100AC00090959B01AC01BD01CF010895F894FFCF33
:0E0AD0002D005F0044433D00332E38487A006D
:00000001FF
